:1000000045C0000053C0000051C000004FC00000B8
:100010004DC000004BC0000049C0000047C00000B8
:1000200045C0000043C0000041C000003FC00000C8
:100030003DC000003BC0000039C0000037C00000D8
:1000400035C0000033C0000031C000002FC00000E8
:100050002DC000002BC0000029C0000027C00000F8
:1000600025C0000023C0000021C000001FC0000008
:100070001DC000001BC0000019C0000017C0000018
:1000800015C0000013C0000011C0000011241FBEE5
:10009000CFEFD0E4DEBFCDBF21E0A0E0B1E001C0F2
:1000A0001D92A330B207E1F739D048C0A9CF8091A3
:1000B0000201813079F028F08230A1F08330B1F074
:1000C0001DC08091010181608093010181E08093D6
:1000D000020108958091000180FF1FC082E080939B
:1000E00002010EC083E08093020108958091000117
:1000F00080FD13C081E0809302010895823069F48D
:100100008091010180FF05C08E7F82608093010194
:1001100008958D7F816080930101089511B88FEF5C
:1001200082B984B915B81092020180B181708093B0
:100130000001BDDF8091010185B9F7CFF894FFCFB1
:00000001FF
